{
  "contractName": "Patient",
  "abi": [
    {
      "inputs": [],
      "stateMutability": "nonpayable",
      "type": "constructor"
    },
    {
      "inputs": [],
      "name": "ownerAddress",
      "outputs": [
        {
          "internalType": "address",
          "name": "",
          "type": "address"
        }
      ],
      "stateMutability": "view",
      "type": "function",
      "constant": true
    },
    {
      "inputs": [
        {
          "internalType": "uint256",
          "name": "",
          "type": "uint256"
        }
      ],
      "name": "patientList",
      "outputs": [
        {
          "internalType": "uint256",
          "name": "id",
          "type": "uint256"
        },
        {
          "internalType": "uint256",
          "name": "age",
          "type": "uint256"
        },
        {
          "internalType": "enum Patient.Gender",
          "name": "gender",
          "type": "uint8"
        },
        {
          "internalType": "enum Patient.VaccineStatus",
          "name": "vaccine_status",
          "type": "uint8"
        },
        {
          "internalType": "string",
          "name": "district",
          "type": "string"
        },
        {
          "internalType": "string",
          "name": "symptoms_details",
          "type": "string"
        },
        {
          "internalType": "bool",
          "name": "is_dead",
          "type": "bool"
        },
        {
          "internalType": "address",
          "name": "owner",
          "type": "address"
        },
        {
          "internalType": "enum Patient.Role",
          "name": "role",
          "type": "uint8"
        }
      ],
      "stateMutability": "view",
      "type": "function",
      "constant": true
    },
    {
      "inputs": [
        {
          "internalType": "uint256",
          "name": "_age",
          "type": "uint256"
        },
        {
          "internalType": "uint256",
          "name": "_gender",
          "type": "uint256"
        },
        {
          "internalType": "string",
          "name": "_district",
          "type": "string"
        },
        {
          "internalType": "string",
          "name": "_symptoms_details",
          "type": "string"
        }
      ],
      "name": "storePatientData",
      "outputs": [],
      "stateMutability": "nonpayable",
      "type": "function"
    },
    {
      "inputs": [
        {
          "internalType": "uint256",
          "name": "_id",
          "type": "uint256"
        },
        {
          "internalType": "enum Patient.VaccineStatus",
          "name": "_vaccineStatus",
          "type": "uint8"
        }
      ],
      "name": "updateVaccineStatus",
      "outputs": [],
      "stateMutability": "nonpayable",
      "type": "function"
    },
    {
      "inputs": [
        {
          "internalType": "uint256",
          "name": "_patientID",
          "type": "uint256"
        },
        {
          "internalType": "bool",
          "name": "_deadStatus",
          "type": "bool"
        }
      ],
      "name": "updateDeadStatus",
      "outputs": [],
      "stateMutability": "nonpayable",
      "type": "function"
    },
    {
      "inputs": [
        {
          "internalType": "uint256",
          "name": "_patientID",
          "type": "uint256"
        },
        {
          "internalType": "string",
          "name": "_symptoms",
          "type": "string"
        }
      ],
      "name": "updatePatientSymptoms",
      "outputs": [],
      "stateMutability": "nonpayable",
      "type": "function"
    },
    {
      "inputs": [
        {
          "internalType": "uint256",
          "name": "_patientID",
          "type": "uint256"
        },
        {
          "internalType": "string",
          "name": "_district",
          "type": "string"
        }
      ],
      "name": "updatePatientDistrict",
      "outputs": [],
      "stateMutability": "nonpayable",
      "type": "function"
    },
    {
      "inputs": [
        {
          "internalType": "uint256",
          "name": "_patientID",
          "type": "uint256"
        },
        {
          "internalType": "uint256",
          "name": "_age",
          "type": "uint256"
        }
      ],
      "name": "updatePatientAge",
      "outputs": [],
      "stateMutability": "nonpayable",
      "type": "function"
    },
    {
      "inputs": [],
      "name": "calculateAverageDeathRate",
      "outputs": [
        {
          "internalType": "uint256",
          "name": "",
          "type": "uint256"
        }
      ],
      "stateMutability": "view",
      "type": "function",
      "constant": true
    },
    {
      "inputs": [],
      "name": "findDistrictWithHighestCovidPatient",
      "outputs": [
        {
          "internalType": "string",
          "name": "",
          "type": "string"
        }
      ],
      "stateMutability": "view",
      "type": "function",
      "constant": true
    },
    {
      "inputs": [
        {
          "internalType": "string",
          "name": "_district",
          "type": "string"
        }
      ],
      "name": "calculateMedianAge",
      "outputs": [
        {
          "internalType": "uint256",
          "name": "",
          "type": "uint256"
        }
      ],
      "stateMutability": "view",
      "type": "function",
      "constant": true
    },
    {
      "inputs": [],
      "name": "calculateAgeGroupPercentage",
      "outputs": [
        {
          "internalType": "uint256",
          "name": "",
          "type": "uint256"
        },
        {
          "internalType": "uint256",
          "name": "",
          "type": "uint256"
        },
        {
          "internalType": "uint256",
          "name": "",
          "type": "uint256"
        },
        {
          "internalType": "uint256",
          "name": "",
          "type": "uint256"
        }
      ],
      "stateMutability": "view",
      "type": "function",
      "constant": true
    },
    {
      "inputs": [
        {
          "internalType": "uint256",
          "name": "_id",
          "type": "uint256"
        }
      ],
      "name": "generateVaccineCertificate",
      "outputs": [
        {
          "internalType": "string",
          "name": "",
          "type": "string"
        }
      ],
      "stateMutability": "view",
      "type": "function",
      "constant": true
    },
    {
      "inputs": [
        {
          "internalType": "uint256",
          "name": "_id",
          "type": "uint256"
        },
        {
          "internalType": "bool",
          "name": "_isDead",
          "type": "bool"
        }
      ],
      "name": "updateDeathRateAutomatically",
      "outputs": [],
      "stateMutability": "nonpayable",
      "type": "function"
    }
  ],
  "bytecode": "0x6080604052336000806101000a81548173ffffffffffffffffffffffffffffffffffffffff021916908373ffffffffffffffffffffffffffffffffffffffff16021790555060006001553480156200005657600080fd5b506001600360003373ffffffffffffffffffffffffffffffffffffffff1673ffffffffffffffffffffffffffffffffffffffff168152602001908152602001600020819055506002604051806101200160405280600181526020016019815260200160006002811115620000cf57620000ce6200031b565b5b815260200160006002811115620000eb57620000ea6200031b565b5b81526020016040518060400160405280600581526020017f61646d696e00000000000000000000000000000000000000000000000000000081525081526020016040518060400160405280600581526020017f61646d696e00000000000000000000000000000000000000000000000000000081525081526020016000151581526020013373ffffffffffffffffffffffffffffffffffffffff16815260200160006001811115620001a257620001a16200031b565b5b8152509080600181540180825580915050600190039060005260206000209060060201600090919091909150600082015181600001556020820151816001015560408201518160020160006101000a81548160ff0219169083600281111562000210576200020f6200031b565b5b021790555060608201518160020160016101000a81548160ff021916908360028111156200024357620002426200031b565b5b021790555060808201518160030190816200025f9190620005c4565b5060a0820151816004019081620002779190620005c4565b5060c08201518160050160006101000a81548160ff02191690831515021790555060e08201518160050160016101000a81548173ffffffffffffffffffffffffffffffffffffffff021916908373ffffffffffffffffffffffffffffffffffffffff1602179055506101008201518160050160156101000a81548160ff021916908360018111156200030e576200030d6200031b565b5b02179055505050620006ab565b7f4e487b7100000000000000000000000000000000000000000000000000000000600052602160045260246000fd5b600081519050919050565b7f4e487b7100000000000000000000000000000000000000000000000000000000600052604160045260246000fd5b7f4e487b7100000000000000000000000000000000000000000000000000000000600052602260045260246000fd5b60006002820490506001821680620003cc57607f821691505b602082108103620003e257620003e162000384565b5b50919050565b60008190508160005260206000209050919050565b60006020601f8301049050919050565b600082821b905092915050565b6000600883026200044c7fffffffffffffffffffffffffffffffffffffffffffffffffffffffffffffffff826200040d565b6200045886836200040d565b95508019841693508086168417925050509392505050565b6000819050919050565b6000819050919050565b6000620004a56200049f620004998462000470565b6200047a565b62000470565b9050919050565b6000819050919050565b620004c18362000484565b620004d9620004d082620004ac565b8484546200041a565b825550505050565b600090565b620004f0620004e1565b620004fd818484620004b6565b505050565b5b81811015620005255762000519600082620004e6565b60018101905062000503565b5050565b601f82111562000574576200053e81620003e8565b6200054984620003fd565b8101602085101562000559578190505b620005716200056885620003fd565b83018262000502565b50505b505050565b600082821c905092915050565b6000620005996000198460080262000579565b1980831691505092915050565b6000620005b4838362000586565b9150826002028217905092915050565b620005cf826200034a565b67ffffffffffffffff811115620005eb57620005ea62000355565b5b620005f78254620003b3565b6200060482828562000529565b600060209050601f8311600181146200063c576000841562000627578287015190505b620006338582620005a6565b865550620006a3565b601f1984166200064c86620003e8565b60005b8281101562000676578489015182556001820191506020850194506020810190506200064f565b8683101562000696578489015162000692601f89168262000586565b8355505b6001600288020188555050505b505050505050565b61278f80620006bb6000396000f3fe608060405234801561001057600080fd5b50600436106100ea5760003560e01c80638f84aa091161008c578063b078bbd711610066578063b078bbd714610224578063babb1d4114610240578063e7ca0c1b14610278578063f8898822146102a8576100ea565b80638f84aa09146101c9578063a128eb69146101e7578063a479831514610208576100ea565b8063733663b4116100c8578063733663b4146101455780637e7e59af1461016157806383bf4d7d1461019157806384825f83146101ad576100ea565b806312abed07146100ef578063602de8c41461010b57806367c4f25914610127575b600080fd5b61010960048036038101906101049190611926565b6102c6565b005b610125600480360381019061012091906119a7565b6103c6565b005b61012f6104e0565b60405161013c91906119f6565b60405180910390f35b61015f600480360381019061015a9190611a11565b610569565b005b61017b60048036038101906101769190611ab0565b610826565b6040516101889190611b5c565b60405180910390f35b6101ab60048036038101906101a69190611926565b610959565b005b6101c760048036038101906101c29190611bb6565b610a59565b005b6101d1610b63565b6040516101de9190611c37565b60405180910390f35b6101ef610b87565b6040516101ff9493929190611c52565b60405180910390f35b610222600480360381019061021d9190611c97565b610d84565b005b61023e60048036038101906102399190611bb6565b610e7b565b005b61025a60048036038101906102559190611ab0565b610f3e565b60405161026f99989796959493929190611ded565b60405180910390f35b610292600480360381019061028d9190611e88565b611100565b60405161029f91906119f6565b60405180910390f35b6102b061130b565b6040516102bd9190611b5c565b60405180910390f35b6001600360003373ffffffffffffffffffffffffffffffffffffffff1673ffffffffffffffffffffffffffffffffffffffff1681526020019081526020016000205414610348576040517f08c379a000000000000000000000000000000000000000000000000000000000815260040161033f90611f43565b60405180910390fd5b600280549050821061038f576040517f08c379a000000000000000000000000000000000000000000000000000000000815260040161038690611faf565b60405180910390fd5b80600283815481106103a4576103a3611fcf565b5b906000526020600020906006020160040190816103c1919061220a565b505050565b6001600360003373ffffffffffffffffffffffffffffffffffffffff1673ffffffffffffffffffffffffffffffffffffffff1681526020019081526020016000205414610448576040517f08c379a000000000000000000000000000000000000000000000000000000000815260040161043f90611f43565b60405180910390fd5b600280549050821061048f576040517f08c379a000000000000000000000000000000000000000000000000000000000815260040161048690611faf565b60405180910390fd5b80600283815481106104a4576104a3611fcf565b5b906000526020600020906006020160020160016101000a81548160ff021916908360028111156104d7576104d6611cd7565b5b02179055505050565b6000806000905060005b600280549050811015610551576002818154811061050b5761050a611fcf565b5b906000526020600020906006020160050160009054906101000a900460ff161561053e57818061053a9061230b565b9250505b80806105499061230b565b9150506104ea565b50600280549050816105639190612382565b91505090565b6000831015801561057b575060028311155b6105ba576040517f08c379a00000000000000000000000000000000000000000000000000000000081526004016105b1906123ff565b60405180910390fd5b6000604051806101200160405280600180546105d6919061241f565b81526020018681526020018560028111156105f4576105f3611cd7565b5b600281111561060657610605611cd7565b5b81526020016000600281111561061f5761061e611cd7565b5b81526020018481526020018381526020016000151581526020013373ffffffffffffffffffffffffffffffffffffffff16815260200160018081111561066857610667611cd7565b5b81525090506002819080600181540180825580915050600190039060005260206000209060060201600090919091909150600082015181600001556020820151816001015560408201518160020160006101000a81548160ff021916908360028111156106d8576106d7611cd7565b5b021790555060608201518160020160016101000a81548160ff0219169083600281111561070857610707611cd7565b5b02179055506080820151816003019081610722919061220a565b5060a0820151816004019081610738919061220a565b5060c08201518160050160006101000a81548160ff02191690831515021790555060e08201518160050160016101000a81548173ffffffffffffffffffffffffffffffffffffffff021916908373ffffffffffffffffffffffffffffffffffffffff1602179055506101008201518160050160156101000a81548160ff021916908360018111156107cc576107cb611cd7565b5b02179055505050600160008154809291906107e69061230b565b91905055506004836040516107fb919061248f565b9081526020016040518091039020600081548092919061081a9061230b565b91905055505050505050565b606060028081111561083b5761083a611cd7565b5b6002838154811061084f5761084e611fcf565b5b906000526020600020906006020160020160019054906101000a900460ff1660028111156108805761087f611cd7565b5b146108c0576040517f08c379a00000000000000000000000000000000000000000000000000000000081526004016108b790612518565b60405180910390fd5b60006040518060600160405280602881526020016127326028913990508061090c600285815481106108f5576108f4611fcf565b5b90600052602060002090600602016000015461147b565b60405160200161091d929190612538565b60405160208183030381529060405290508060405160200161093f91906125ce565b604051602081830303815290604052905080915050919050565b6001600360003373ffffffffffffffffffffffffffffffffffffffff1673ffffffffffffffffffffffffffffffffffffffff16815260200190815260200160002054146109db576040517f08c379a00000000000000000000000000000000000000000000000000000000081526004016109d290611f43565b60405180910390fd5b6002805490508210610a22576040517f08c379a0000000000000000000000000000000000000000000000000000000008152600401610a1990611faf565b60405180910390fd5b8060028381548110610a3757610a36611fcf565b5b90600052602060002090600602016003019081610a54919061220a565b505050565b6001600360003373ffffffffffffffffffffffffffffffffffffffff1673ffffffffffffffffffffffffffffffffffffffff1681526020019081526020016000205414610adb576040517f08c379a0000000000000000000000000000000000000000000000000000000008152600401610ad290611f43565b60405180910390fd5b6002805490508210610b22576040517f08c379a0000000000000000000000000000000000000000000000000000000008152600401610b1990611faf565b60405180910390fd5b8060028381548110610b3757610b36611fcf565b5b906000526020600020906006020160050160006101000a81548160ff0219169083151502179055505050565b60008054906101000a900473ffffffffffffffffffffffffffffffffffffffff1681565b60008060008060008060008060005b600280549050811015610cee57600d60028281548110610bb957610bb8611fcf565b5b9060005260206000209060060201600101541015610be4578480610bdc9061230b565b955050610cdb565b600d60028281548110610bfa57610bf9611fcf565b5b90600052602060002090600602016001015410158015610c3f5750601460028281548110610c2b57610c2a611fcf565b5b906000526020600020906006020160010154105b15610c57578380610c4f9061230b565b945050610cda565b601460028281548110610c6d57610c6c611fcf565b5b90600052602060002090600602016001015410158015610cb25750603260028281548110610c9e57610c9d611fcf565b5b906000526020600020906006020160010154105b15610cca578280610cc29061230b565b935050610cd9565b8180610cd59061230b565b9250505b5b5b8080610ce69061230b565b915050610b96565b5060006002805490509050600081606487610d0991906125f0565b610d139190612382565b9050600082606487610d2591906125f0565b610d2f9190612382565b9050600083606487610d4191906125f0565b610d4b9190612382565b9050600084606487610d5d91906125f0565b610d679190612382565b9050838383839c509c509c509c5050505050505050505090919293565b6001600360003373ffffffffffffffffffffffffffffffffffffffff1673ffffffffffffffffffffffffffffffffffffffff1681526020019081526020016000205414610e06576040517f08c379a0000000000000000000000000000000000000000000000000000000008152600401610dfd90611f43565b60405180910390fd5b6002805490508210610e4d576040517f08c379a0000000000000000000000000000000000000000000000000000000008152600401610e4490611faf565b60405180910390fd5b8060028381548110610e6257610e61611fcf565b5b9060005260206000209060060201600101819055505050565b6001600360003373ffffffffffffffffffffffffffffffffffffffff1673ffffffffffffffffffffffffffffffffffffffff1681526020019081526020016000205414610efd576040517f08c379a0000000000000000000000000000000000000000000000000000000008152600401610ef490611f43565b60405180910390fd5b8060028381548110610f1257610f11611fcf565b5b906000526020600020906006020160050160006101000a81548160ff0219169083151502179055505050565b60028181548110610f4e57600080fd5b90600052602060002090600602016000915090508060000154908060010154908060020160009054906101000a900460ff16908060020160019054906101000a900460ff1690806003018054610fa39061202d565b80601f0160208091040260200160405190810160405280929190818152602001828054610fcf9061202d565b801561101c5780601f10610ff15761010080835404028352916020019161101c565b820191906000526020600020905b815481529060010190602001808311610fff57829003601f168201915b5050505050908060040180546110319061202d565b80601f016020809104026020016040519081016040528092919081815260200182805461105d9061202d565b80156110aa5780601f1061107f576101008083540402835291602001916110aa565b820191906000526020600020905b81548152906001019060200180831161108d57829003601f168201915b5050505050908060050160009054906101000a900460ff16908060050160019054906101000a900473ffffffffffffffffffffffffffffffffffffffff16908060050160159054906101000a900460ff16905089565b60008060028054905067ffffffffffffffff811115611122576111216117fb565b5b6040519080825280602002602001820160405280156111505781602001602082028036833780820191505090505b5090506000805b6002805490508110156112405784604051602001611175919061248f565b604051602081830303815290604052805190602001206002828154811061119f5761119e611fcf565b5b90600052602060002090600602016003016040516020016111c091906126b5565b604051602081830303815290604052805190602001200361122d57600281815481106111ef576111ee611fcf565b5b90600052602060002090600602016001015483838061120d9061230b565b9450815181106112205761121f611fcf565b5b6020026020010181815250505b80806112389061230b565b915050611157565b506000810361125457600092505050611306565b61125e828261165c565b600060028261126d9190612382565b9050600160028361127e91906126cc565b036112a85782818151811061129657611295611fcf565b5b60200260200101519350505050611306565b60028382815181106112bd576112bc611fcf565b5b6020026020010151846001846112d391906126fd565b815181106112e4576112e3611fcf565b5b60200260200101516112f6919061241f565b6113009190612382565b93505050505b919050565b6060806000805b600280549050811015611472578160046002838154811061133657611335611fcf565b5b906000526020600020906006020160030160405161135491906126b5565b908152602001604051809103902054111561145f5760046002828154811061137f5761137e611fcf565b5b906000526020600020906006020160030160405161139d91906126b5565b9081526020016040518091039020549150600281815481106113c2576113c1611fcf565b5b906000526020600020906006020160030180546113de9061202d565b80601f016020809104026020016040519081016040528092919081815260200182805461140a9061202d565b80156114575780601f1061142c57610100808354040283529160200191611457565b820191906000526020600020905b81548152906001019060200180831161143a57829003601f168201915b505050505092505b808061146a9061230b565b915050611312565b50819250505090565b606060006064905060008167ffffffffffffffff81111561149f5761149e6117fb565b5b6040519080825280601f01601f1916602001820160405280156114d15781602001600182028036833780820191505090505b50905060005b60008514611563576000600a866114ee91906126cc565b9050600a866114fd9190612382565b955080603061150c919061241f565b60f81b83838061151b9061230b565b94508151811061152e5761152d611fcf565b5b60200101907effffffffffffffffffffffffffffffffffffffffffffffffffffffffffffff1916908160001a905350506114d7565b60008167ffffffffffffffff81111561157f5761157e6117fb565b5b6040519080825280601f01601f1916602001820160405280156115b15781602001600182028036833780820191505090505b50905060005b828110156116495783600182856115ce91906126fd565b6115d891906126fd565b815181106115e9576115e8611fcf565b5b602001015160f81c60f81b82828151811061160757611606611fcf565b5b60200101907effffffffffffffffffffffffffffffffffffffffffffffffffffffffffffff1916908160001a90535080806116419061230b565b9150506115b7565b5060008190508095505050505050919050565b60005b60018261166c91906126fd565b8110156117915760005b6001828461168491906126fd565b61168e91906126fd565b81101561177d57836001826116a3919061241f565b815181106116b4576116b3611fcf565b5b60200260200101518482815181106116cf576116ce611fcf565b5b6020026020010151111561176a57836001826116eb919061241f565b815181106116fc576116fb611fcf565b5b602002602001015184828151811061171757611716611fcf565b5b602002602001015185838151811061173257611731611fcf565b5b6020026020010186600185611747919061241f565b8151811061175857611757611fcf565b5b60200260200101828152508281525050505b80806117759061230b565b915050611676565b5080806117899061230b565b91505061165f565b505050565b6000604051905090565b600080fd5b600080fd5b6000819050919050565b6117bd816117aa565b81146117c857600080fd5b50565b6000813590506117da816117b4565b92915050565b600080fd5b600080fd5b6000601f19601f8301169050919050565b7f4e487b7100000000000000000000000000000000000000000000000000000000600052604160045260246000fd5b611833826117ea565b810181811067ffffffffffffffff82111715611852576118516117fb565b5b80604052505050565b6000611865611796565b9050611871828261182a565b919050565b600067ffffffffffffffff821115611891576118906117fb565b5b61189a826117ea565b9050602081019050919050565b82818337600083830152505050565b60006118c96118c484611876565b61185b565b9050828152602081018484840111156118e5576118e46117e5565b5b6118f08482856118a7565b509392505050565b600082601f83011261190d5761190c6117e0565b5b813561191d8482602086016118b6565b91505092915050565b6000806040838503121561193d5761193c6117a0565b5b600061194b858286016117cb565b925050602083013567ffffffffffffffff81111561196c5761196b6117a5565b5b611978858286016118f8565b9150509250929050565b6003811061198f57600080fd5b50565b6000813590506119a181611982565b92915050565b600080604083850312156119be576119bd6117a0565b5b60006119cc858286016117cb565b92505060206119dd85828601611992565b9150509250929050565b6119f0816117aa565b82525050565b6000602082019050611a0b60008301846119e7565b92915050565b60008060008060808587031215611a2b57611a2a6117a0565b5b6000611a39878288016117cb565b9450506020611a4a878288016117cb565b935050604085013567ffffffffffffffff811115611a6b57611a6a6117a5565b5b611a77878288016118f8565b925050606085013567ffffffffffffffff811115611a9857611a976117a5565b5b611aa4878288016118f8565b91505092959194509250565b600060208284031215611ac657611ac56117a0565b5b6000611ad4848285016117cb565b91505092915050565b600081519050919050565b600082825260208201905092915050565b60005b83811015611b17578082015181840152602081019050611afc565b60008484015250505050565b6000611b2e82611add565b611b388185611ae8565b9350611b48818560208601611af9565b611b51816117ea565b840191505092915050565b60006020820190508181036000830152611b768184611b23565b905092915050565b60008115159050919050565b611b9381611b7e565b8114611b9e57600080fd5b50565b600081359050611bb081611b8a565b92915050565b60008060408385031215611bcd57611bcc6117a0565b5b6000611bdb858286016117cb565b9250506020611bec85828601611ba1565b9150509250929050565b600073ffffffffffffffffffffffffffffffffffffffff82169050919050565b6000611c2182611bf6565b9050919050565b611c3181611c16565b82525050565b6000602082019050611c4c6000830184611c28565b92915050565b6000608082019050611c6760008301876119e7565b611c7460208301866119e7565b611c8160408301856119e7565b611c8e60608301846119e7565b95945050505050565b60008060408385031215611cae57611cad6117a0565b5b6000611cbc858286016117cb565b9250506020611ccd858286016117cb565b9150509250929050565b7f4e487b7100000000000000000000000000000000000000000000000000000000600052602160045260246000fd5b60038110611d1757611d16611cd7565b5b50565b6000819050611d2882611d06565b919050565b6000611d3882611d1a565b9050919050565b611d4881611d2d565b82525050565b60038110611d5f57611d5e611cd7565b5b50565b6000819050611d7082611d4e565b919050565b6000611d8082611d62565b9050919050565b611d9081611d75565b82525050565b611d9f81611b7e565b82525050565b60028110611db657611db5611cd7565b5b50565b6000819050611dc782611da5565b919050565b6000611dd782611db9565b9050919050565b611de781611dcc565b82525050565b600061012082019050611e03600083018c6119e7565b611e10602083018b6119e7565b611e1d604083018a611d3f565b611e2a6060830189611d87565b8181036080830152611e3c8188611b23565b905081810360a0830152611e508187611b23565b9050611e5f60c0830186611d96565b611e6c60e0830185611c28565b611e7a610100830184611dde565b9a9950505050505050505050565b600060208284031215611e9e57611e9d6117a0565b5b600082013567ffffffffffffffff811115611ebc57611ebb6117a5565b5b611ec8848285016118f8565b91505092915050565b7f4f6e6c792061646d696e2063616e2061636365737320746869732066756e637460008201527f696f6e0000000000000000000000000000000000000000000000000000000000602082015250565b6000611f2d602383611ae8565b9150611f3882611ed1565b604082019050919050565b60006020820190508181036000830152611f5c81611f20565b9050919050565b7f50617469656e7420494420646f6573206e6f7420657869737400000000000000600082015250565b6000611f99601983611ae8565b9150611fa482611f63565b602082019050919050565b60006020820190508181036000830152611fc881611f8c565b9050919050565b7f4e487b7100000000000000000000000000000000000000000000000000000000600052603260045260246000fd5b7f4e487b7100000000000000000000000000000000000000000000000000000000600052602260045260246000fd5b6000600282049050600182168061204557607f821691505b60208210810361205857612057611ffe565b5b50919050565b60008190508160005260206000209050919050565b60006020601f8301049050919050565b600082821b905092915050565b6000600883026120c07fffffffffffffffffffffffffffffffffffffffffffffffffffffffffffffffff82612083565b6120ca8683612083565b95508019841693508086168417925050509392505050565b6000819050919050565b60006121076121026120fd846117aa565b6120e2565b6117aa565b9050919050565b6000819050919050565b612121836120ec565b61213561212d8261210e565b848454612090565b825550505050565b600090565b61214a61213d565b612155818484612118565b505050565b5b818110156121795761216e600082612142565b60018101905061215b565b5050565b601f8211156121be5761218f8161205e565b61219884612073565b810160208510156121a7578190505b6121bb6121b385612073565b83018261215a565b50505b505050565b600082821c905092915050565b60006121e1600019846008026121c3565b1980831691505092915050565b60006121fa83836121d0565b9150826002028217905092915050565b61221382611add565b67ffffffffffffffff81111561222c5761222b6117fb565b5b612236825461202d565b61224182828561217d565b600060209050601f8311600181146122745760008415612262578287015190505b61226c85826121ee565b8655506122d4565b601f1984166122828661205e565b60005b828110156122aa57848901518255600182019150602085019450602081019050612285565b868310156122c757848901516122c3601f8916826121d0565b8355505b6001600288020188555050505b505050505050565b7f4e487b7100000000000000000000000000000000000000000000000000000000600052601160045260246000fd5b6000612316826117aa565b91507fffffffffffffffffffffffffffffffffffffffffffffffffffffffffffffffff8203612348576123476122dc565b5b600182019050919050565b7f4e487b7100000000000000000000000000000000000000000000000000000000600052601260045260246000fd5b600061238d826117aa565b9150612398836117aa565b9250826123a8576123a7612353565b5b828204905092915050565b7f496e76616c69642067656e646572000000000000000000000000000000000000600082015250565b60006123e9600e83611ae8565b91506123f4826123b3565b602082019050919050565b60006020820190508181036000830152612418816123dc565b9050919050565b600061242a826117aa565b9150612435836117aa565b925082820190508082111561244d5761244c6122dc565b5b92915050565b600081905092915050565b600061246982611add565b6124738185612453565b9350612483818560208601611af9565b80840191505092915050565b600061249b828461245e565b915081905092915050565b7f50617469656e7420686173206e6f742072656365697665642074776f20646f7360008201527f6573207965740000000000000000000000000000000000000000000000000000602082015250565b6000612502602683611ae8565b915061250d826124a6565b604082019050919050565b60006020820190508181036000830152612531816124f5565b9050919050565b6000612544828561245e565b9150612550828461245e565b91508190509392505050565b7f20686173206265656e2066756c6c792076616363696e6174656420776974682060008201527f74776f20646f7365732e00000000000000000000000000000000000000000000602082015250565b60006125b8602a83612453565b91506125c38261255c565b602a82019050919050565b60006125da828461245e565b91506125e5826125ab565b915081905092915050565b60006125fb826117aa565b9150612606836117aa565b9250828202612614816117aa565b9150828204841483151761262b5761262a6122dc565b5b5092915050565b6000815461263f8161202d565b6126498186612453565b945060018216600081146126645760018114612679576126ac565b60ff19831686528115158202860193506126ac565b6126828561205e565b60005b838110156126a457815481890152600182019150602081019050612685565b838801955050505b50505092915050565b60006126c18284612632565b915081905092915050565b60006126d7826117aa565b91506126e2836117aa565b9250826126f2576126f1612353565b5b828206905092915050565b6000612708826117aa565b9150612713836117aa565b925082820390508181111561272b5761272a6122dc565b5b9291505056fe5468697320697320746f206365727469667920746861742070617469656e74207769746820494420a26469706673582212208b1da833cac9c8ff649f26a710c7811fd00b8765a6f207ce2a33f26ad3e6dbcb64736f6c63430008110033",
  "immutableReferences": {},
  "source": "// SPDX-License-Identifier: MIT\r\npragma solidity 0.8.17;\r\n\r\ncontract Patient {\r\n    address public ownerAddress = msg.sender;\r\n\r\n    uint private initialPatientID = 0;\r\n\r\n    struct PatientInfo {\r\n        uint id;\r\n        uint age;\r\n        Gender gender;\r\n        VaccineStatus vaccine_status;\r\n        string district;\r\n        string symptoms_details;\r\n        bool is_dead;\r\n        address owner;\r\n        Role role;\r\n    }\r\n\r\n    PatientInfo[] public patientList;\r\n    mapping(address => uint) isAdmin;\r\n    mapping(string => uint) districtPatientsCount;\r\n\r\n    enum Gender {\r\n        Male,\r\n        Female,\r\n        Other\r\n    }\r\n\r\n    enum VaccineStatus {\r\n        not_vaccinated,\r\n        one_dose,\r\n        two_dose\r\n    }\r\n\r\n    enum Role {\r\n        admin,\r\n        patient\r\n    }\r\n\r\n    constructor() {\r\n        isAdmin[msg.sender] = 1;\r\n        patientList.push(\r\n            PatientInfo(\r\n                1,\r\n                25,\r\n                Gender.Male,\r\n                VaccineStatus.not_vaccinated,\r\n                \"admin\",\r\n                \"admin\",\r\n                false,\r\n                msg.sender,\r\n                Role.admin\r\n            )\r\n        );\r\n    }\r\n\r\n    // Store patient data \r\n    function storePatientData(\r\n        uint256 _age,\r\n        uint256 _gender, \r\n        string memory _district,\r\n        string memory _symptoms_details\r\n    ) public {\r\n        require(_gender >= 0 && _gender <= 2, \"Invalid gender\");\r\n\r\n        PatientInfo memory temporaryPatient = PatientInfo(\r\n            initialPatientID + 1,\r\n            _age,\r\n            Gender(_gender),\r\n            VaccineStatus.not_vaccinated,\r\n            _district,\r\n            _symptoms_details,\r\n            false,\r\n            msg.sender,\r\n            Role.patient\r\n        );\r\n\r\n        patientList.push(temporaryPatient);\r\n        initialPatientID++;\r\n\r\n        districtPatientsCount[_district]++;\r\n    }\r\n\r\n    modifier onlyAdminAccess() {\r\n        require(\r\n            isAdmin[msg.sender] == 1,\r\n            \"Only admin can access this function\"\r\n        );\r\n        _;\r\n    }\r\n\r\n    function updateVaccineStatus(\r\n        uint _id,\r\n        VaccineStatus _vaccineStatus\r\n    ) public onlyAdminAccess {\r\n        require(_id < patientList.length, \"Patient ID does not exist\");\r\n        patientList[_id].vaccine_status = _vaccineStatus;\r\n    }\r\n\r\n    function updateDeadStatus(\r\n        uint _patientID, \r\n        bool _deadStatus\r\n    ) public onlyAdminAccess {\r\n        require(_patientID < patientList.length, \"Patient ID does not exist\");\r\n        patientList[_patientID].is_dead = _deadStatus;\r\n    }\r\n    \r\n    function updatePatientSymptoms(\r\n        uint _patientID, \r\n        string memory _symptoms\r\n    ) public onlyAdminAccess {\r\n        require(_patientID < patientList.length, \"Patient ID does not exist\");\r\n        patientList[_patientID].symptoms_details = _symptoms;\r\n    }\r\n\r\n    function updatePatientDistrict(\r\n        uint _patientID, \r\n        string memory _district\r\n    ) public onlyAdminAccess {\r\n        require(_patientID < patientList.length, \"Patient ID does not exist\");\r\n        patientList[_patientID].district = _district;\r\n    }\r\n\r\n    function updatePatientAge(\r\n        uint _patientID, \r\n        uint _age\r\n    ) public onlyAdminAccess {\r\n        require(_patientID < patientList.length, \"Patient ID does not exist\");\r\n        patientList[_patientID].age = _age;\r\n    }\r\n\r\n    // Function to calculate average death rate per day combined all the districts\r\n    function calculateAverageDeathRate() public view returns (uint) {\r\n        uint totalDeadPatients = 0;\r\n        for (uint i = 0; i < patientList.length; i++) {\r\n            if (patientList[i].is_dead) {\r\n                totalDeadPatients++;\r\n            }\r\n        }\r\n        return totalDeadPatients / patientList.length;\r\n    }\r\n\r\n    // Function to find the district with the highest number of covid patients\r\n    function findDistrictWithHighestCovidPatient() public view returns (string memory) {\r\n        string memory districtWithHighestPatients;\r\n        uint highestPatientCount = 0;\r\n        \r\n        for (uint i = 0; i < patientList.length; i++) {\r\n            if (districtPatientsCount[patientList[i].district] > highestPatientCount) {\r\n                highestPatientCount = districtPatientsCount[patientList[i].district];\r\n                districtWithHighestPatients = patientList[i].district;\r\n            }\r\n        }\r\n        return districtWithHighestPatients;\r\n    }\r\n\r\n    // Function to calculate the median age of covid patients in each district\r\n    function calculateMedianAge(string memory _district) public view returns (uint) {\r\n        uint[] memory ages = new uint[](patientList.length);\r\n        uint count = 0;\r\n        for (uint i = 0; i < patientList.length; i++) {\r\n            if (keccak256(abi.encodePacked(patientList[i].district)) == keccak256(abi.encodePacked(_district))) {\r\n                ages[count++] = patientList[i].age;\r\n            }\r\n        }\r\n        if (count == 0) {\r\n            return 0; // No patients in the district\r\n        }\r\n        // Sort the ages array\r\n        sort(ages, count);\r\n        \r\n        uint middle = count / 2;\r\n        if (count % 2 == 1) {\r\n            return ages[middle];\r\n        } else {\r\n            return (ages[middle - 1] + ages[middle]) / 2;\r\n        }\r\n    }\r\n\r\n    // Function to sort an array in ascending order (using bubble sort)\r\n    function sort(uint[] memory data, uint length) private pure {\r\n        for (uint i = 0; i < length - 1; i++) {\r\n            for (uint j = 0; j < length - i - 1; j++) {\r\n                if (data[j] > data[j + 1]) {\r\n                    (data[j], data[j + 1]) = (data[j + 1], data[j]); // Swap elements\r\n                }\r\n            }\r\n        }\r\n    }\r\n\r\n\r\n\r\n    // Function to calculate the percentage of Children, Teenage, Young and Elder patients\r\n    function calculateAgeGroupPercentage() public view returns (uint, uint, uint, uint) {\r\n        uint childrenCount;\r\n        uint teenageCount;\r\n        uint youngCount;\r\n        uint elderCount;\r\n        \r\n        for (uint i = 0; i < patientList.length; i++) {\r\n            if (patientList[i].age < 13) {\r\n                childrenCount++;\r\n            } else if (patientList[i].age >= 13 && patientList[i].age < 20) {\r\n                teenageCount++;\r\n            } else if (patientList[i].age >= 20 && patientList[i].age < 50) {\r\n                youngCount++;\r\n            } else {\r\n                elderCount++;\r\n            }\r\n        }\r\n        \r\n        uint totalPatients = patientList.length;\r\n        \r\n        uint childrenPercentage = (childrenCount * 100) / totalPatients;\r\n        uint teenagePercentage = (teenageCount * 100) / totalPatients;\r\n        uint youngPercentage = (youngCount * 100) / totalPatients;\r\n        uint elderPercentage = (elderCount * 100) / totalPatients;\r\n        \r\n        return (childrenPercentage, teenagePercentage, youngPercentage, elderPercentage);\r\n    }\r\n\r\n    // Function to generate a vaccine certificate for patients who received two doses\r\n    function generateVaccineCertificate(uint _id) public view returns (string memory) {\r\n        require(patientList[_id].vaccine_status == VaccineStatus.two_dose, \"Patient has not received two doses yet\");\r\n        \r\n        string memory certificate = \"This is to certify that patient with ID \";\r\n        certificate = string(abi.encodePacked(certificate, uintToString(patientList[_id].id)));\r\n        certificate = string(abi.encodePacked(certificate, \" has been fully vaccinated with two doses.\"));\r\n        return certificate;\r\n    }\r\n\r\n    // Helper function to convert uint to string\r\n    function uintToString(uint v) internal pure returns (string memory) {\r\n        uint maxlength = 100;\r\n        bytes memory reversed = new bytes(maxlength);\r\n        uint i = 0;\r\n        while (v != 0) {\r\n            uint remainder = v % 10;\r\n            v = v / 10;\r\n            reversed[i++] = bytes1(uint8(48 + remainder));\r\n        }\r\n        bytes memory s = new bytes(i); // i + 1 is inefficient, just do i\r\n        for (uint j = 0; j < i; j++) {\r\n            s[j] = reversed[i - j - 1]; // to avoid the off-by-one error\r\n        }\r\n        string memory str = string(s); // memory isn't implicitly convertible to storage\r\n        return str;\r\n    }\r\n\r\n    // Function to update the death rate automatically\r\n    function updateDeathRateAutomatically(uint _id, bool _isDead) public onlyAdminAccess {\r\n        patientList[_id].is_dead = _isDead;\r\n    }\r\n}\r\n",
  "sourcePath": "F:\\CSE446 Project1\\contracts\\patient.sol",
  "compiler": {
    "name": "solc",
    "version": "0.8.17+commit.8df45f5f.Emscripten.clang"
  },
  "schemaVersion": "3.4.16",
  "updatedAt": "2024-04-13T16:03:56.914Z",
  "networkType": "ethereum",
  "devdoc": {
    "kind": "dev",
    "methods": {},
    "version": 1
  },
  "userdoc": {
    "kind": "user",
    "methods": {},
    "version": 1
  }
}