{
  "contractName": "Patient",
  "abi": [
    {
      "inputs": [],
      "stateMutability": "nonpayable",
      "type": "constructor"
    },
    {
      "inputs": [],
      "name": "ownerAddress",
      "outputs": [
        {
          "internalType": "address",
          "name": "",
          "type": "address"
        }
      ],
      "stateMutability": "view",
      "type": "function",
      "constant": true
    },
    {
      "inputs": [
        {
          "internalType": "uint256",
          "name": "",
          "type": "uint256"
        }
      ],
      "name": "patientList",
      "outputs": [
        {
          "internalType": "uint256",
          "name": "id",
          "type": "uint256"
        },
        {
          "internalType": "address",
          "name": "ethereumAddress",
          "type": "address"
        },
        {
          "internalType": "uint256",
          "name": "age",
          "type": "uint256"
        },
        {
          "internalType": "enum Patient.Gender",
          "name": "gender",
          "type": "uint8"
        },
        {
          "internalType": "enum Patient.VaccineStatus",
          "name": "vaccine_status",
          "type": "uint8"
        },
        {
          "internalType": "string",
          "name": "district",
          "type": "string"
        },
        {
          "internalType": "string",
          "name": "symptoms_details",
          "type": "string"
        },
        {
          "internalType": "bool",
          "name": "is_dead",
          "type": "bool"
        },
        {
          "internalType": "address",
          "name": "owner",
          "type": "address"
        },
        {
          "internalType": "enum Patient.Role",
          "name": "role",
          "type": "uint8"
        }
      ],
      "stateMutability": "view",
      "type": "function",
      "constant": true
    },
    {
      "inputs": [
        {
          "internalType": "uint256",
          "name": "_age",
          "type": "uint256"
        },
        {
          "internalType": "uint256",
          "name": "_gender",
          "type": "uint256"
        },
        {
          "internalType": "string",
          "name": "_district",
          "type": "string"
        },
        {
          "internalType": "string",
          "name": "_symptoms_details",
          "type": "string"
        }
      ],
      "name": "storePatientData",
      "outputs": [],
      "stateMutability": "nonpayable",
      "type": "function"
    },
    {
      "inputs": [
        {
          "internalType": "uint256",
          "name": "_id",
          "type": "uint256"
        },
        {
          "internalType": "enum Patient.VaccineStatus",
          "name": "_vaccineStatus",
          "type": "uint8"
        }
      ],
      "name": "updateVaccineStatus",
      "outputs": [],
      "stateMutability": "nonpayable",
      "type": "function"
    },
    {
      "inputs": [
        {
          "internalType": "uint256",
          "name": "_patientID",
          "type": "uint256"
        },
        {
          "internalType": "bool",
          "name": "_deadStatus",
          "type": "bool"
        }
      ],
      "name": "updateDeadStatus",
      "outputs": [],
      "stateMutability": "nonpayable",
      "type": "function"
    },
    {
      "inputs": [
        {
          "internalType": "uint256",
          "name": "_patientID",
          "type": "uint256"
        },
        {
          "internalType": "string",
          "name": "_symptoms",
          "type": "string"
        }
      ],
      "name": "updatePatientSymptoms",
      "outputs": [],
      "stateMutability": "nonpayable",
      "type": "function"
    },
    {
      "inputs": [
        {
          "internalType": "uint256",
          "name": "_patientID",
          "type": "uint256"
        },
        {
          "internalType": "string",
          "name": "_district",
          "type": "string"
        }
      ],
      "name": "updatePatientDistrict",
      "outputs": [],
      "stateMutability": "nonpayable",
      "type": "function"
    },
    {
      "inputs": [
        {
          "internalType": "uint256",
          "name": "_patientID",
          "type": "uint256"
        },
        {
          "internalType": "uint256",
          "name": "_age",
          "type": "uint256"
        }
      ],
      "name": "updatePatientAge",
      "outputs": [],
      "stateMutability": "nonpayable",
      "type": "function"
    },
    {
      "inputs": [],
      "name": "calculateAverageDeathRate",
      "outputs": [
        {
          "internalType": "uint256",
          "name": "",
          "type": "uint256"
        }
      ],
      "stateMutability": "view",
      "type": "function",
      "constant": true
    },
    {
      "inputs": [],
      "name": "findDistrictWithHighestCovidPatient",
      "outputs": [
        {
          "internalType": "string",
          "name": "",
          "type": "string"
        }
      ],
      "stateMutability": "view",
      "type": "function",
      "constant": true
    },
    {
      "inputs": [
        {
          "internalType": "string",
          "name": "_district",
          "type": "string"
        }
      ],
      "name": "calculateMedianAge",
      "outputs": [
        {
          "internalType": "uint256",
          "name": "",
          "type": "uint256"
        }
      ],
      "stateMutability": "view",
      "type": "function",
      "constant": true
    },
    {
      "inputs": [],
      "name": "calculateAgeGroupPercentage",
      "outputs": [
        {
          "internalType": "uint256",
          "name": "",
          "type": "uint256"
        },
        {
          "internalType": "uint256",
          "name": "",
          "type": "uint256"
        },
        {
          "internalType": "uint256",
          "name": "",
          "type": "uint256"
        },
        {
          "internalType": "uint256",
          "name": "",
          "type": "uint256"
        }
      ],
      "stateMutability": "view",
      "type": "function",
      "constant": true
    },
    {
      "inputs": [
        {
          "internalType": "uint256",
          "name": "_id",
          "type": "uint256"
        }
      ],
      "name": "generateVaccineCertificate",
      "outputs": [
        {
          "internalType": "string",
          "name": "",
          "type": "string"
        }
      ],
      "stateMutability": "view",
      "type": "function",
      "constant": true
    },
    {
      "inputs": [
        {
          "internalType": "uint256",
          "name": "_id",
          "type": "uint256"
        },
        {
          "internalType": "bool",
          "name": "_isDead",
          "type": "bool"
        }
      ],
      "name": "updateDeathRateAutomatically",
      "outputs": [],
      "stateMutability": "nonpayable",
      "type": "function"
    }
  ],
  "bytecode": "0x6080604052336000806101000a81548173ffffffffffffffffffffffffffffffffffffffff021916908373ffffffffffffffffffffffffffffffffffffffff16021790555060006001553480156200005657600080fd5b506001600360003373ffffffffffffffffffffffffffffffffffffffff1673ffffffffffffffffffffffffffffffffffffffff168152602001908152602001600020819055506002604051806101400160405280600181526020013373ffffffffffffffffffffffffffffffffffffffff1681526020016019815260200160006002811115620000eb57620000ea6200037f565b5b8152602001600060028111156200010757620001066200037f565b5b81526020016040518060400160405280600581526020017f61646d696e00000000000000000000000000000000000000000000000000000081525081526020016040518060400160405280600581526020017f61646d696e00000000000000000000000000000000000000000000000000000081525081526020016000151581526020013373ffffffffffffffffffffffffffffffffffffffff16815260200160006001811115620001be57620001bd6200037f565b5b81525090806001815401808255809150506001900390600052602060002090600702016000909190919091506000820151816000015560208201518160010160006101000a81548173ffffffffffffffffffffffffffffffffffffffff021916908373ffffffffffffffffffffffffffffffffffffffff1602179055506040820151816002015560608201518160030160006101000a81548160ff021916908360028111156200027357620002726200037f565b5b021790555060808201518160030160016101000a81548160ff02191690836002811115620002a657620002a56200037f565b5b021790555060a0820151816004019081620002c2919062000628565b5060c0820151816005019081620002da919062000628565b5060e08201518160060160006101000a81548160ff0219169083151502179055506101008201518160060160016101000a81548173ffffffffffffffffffffffffffffffffffffffff021916908373ffffffffffffffffffffffffffffffffffffffff1602179055506101208201518160060160156101000a81548160ff021916908360018111156200037257620003716200037f565b5b021790555050506200070f565b7f4e487b7100000000000000000000000000000000000000000000000000000000600052602160045260246000fd5b600081519050919050565b7f4e487b7100000000000000000000000000000000000000000000000000000000600052604160045260246000fd5b7f4e487b7100000000000000000000000000000000000000000000000000000000600052602260045260246000fd5b600060028204905060018216806200043057607f821691505b602082108103620004465762000445620003e8565b5b50919050565b60008190508160005260206000209050919050565b60006020601f8301049050919050565b600082821b905092915050565b600060088302620004b07fffffffffffffffffffffffffffffffffffffffffffffffffffffffffffffffff8262000471565b620004bc868362000471565b95508019841693508086168417925050509392505050565b6000819050919050565b6000819050919050565b60006200050962000503620004fd84620004d4565b620004de565b620004d4565b9050919050565b6000819050919050565b6200052583620004e8565b6200053d620005348262000510565b8484546200047e565b825550505050565b600090565b6200055462000545565b620005618184846200051a565b505050565b5b8181101562000589576200057d6000826200054a565b60018101905062000567565b5050565b601f821115620005d857620005a2816200044c565b620005ad8462000461565b81016020851015620005bd578190505b620005d5620005cc8562000461565b83018262000566565b50505b505050565b600082821c905092915050565b6000620005fd60001984600802620005dd565b1980831691505092915050565b6000620006188383620005ea565b9150826002028217905092915050565b6200063382620003ae565b67ffffffffffffffff8111156200064f576200064e620003b9565b5b6200065b825462000417565b620006688282856200058d565b600060209050601f831160018114620006a057600084156200068b578287015190505b6200069785826200060a565b86555062000707565b601f198416620006b0866200044c565b60005b82811015620006da57848901518255600182019150602085019450602081019050620006b3565b86831015620006fa5784890151620006f6601f891682620005ea565b8355505b6001600288020188555050505b505050505050565b612829806200071f6000396000f3fe608060405234801561001057600080fd5b50600436106100ea5760003560e01c80638f84aa091161008c578063b078bbd711610066578063b078bbd714610224578063babb1d4114610240578063e7ca0c1b14610279578063f8898822146102a9576100ea565b80638f84aa09146101c9578063a128eb69146101e7578063a479831514610208576100ea565b8063733663b4116100c8578063733663b4146101455780637e7e59af1461016157806383bf4d7d1461019157806384825f83146101ad576100ea565b806312abed07146100ef578063602de8c41461010b57806367c4f25914610127575b600080fd5b610109600480360381019061010491906119b1565b6102c7565b005b61012560048036038101906101209190611a32565b6103c7565b005b61012f6104e1565b60405161013c9190611a81565b60405180910390f35b61015f600480360381019061015a9190611a9c565b61056a565b005b61017b60048036038101906101769190611b3b565b61088b565b6040516101889190611be7565b60405180910390f35b6101ab60048036038101906101a691906119b1565b6109be565b005b6101c760048036038101906101c29190611c41565b610abe565b005b6101d1610bc8565b6040516101de9190611cc2565b60405180910390f35b6101ef610bec565b6040516101ff9493929190611cdd565b60405180910390f35b610222600480360381019061021d9190611d22565b610de9565b005b61023e60048036038101906102399190611c41565b610ee0565b005b61025a60048036038101906102559190611b3b565b610fa3565b6040516102709a99989796959493929190611e78565b60405180910390f35b610293600480360381019061028e9190611f22565b61118b565b6040516102a09190611a81565b60405180910390f35b6102b1611396565b6040516102be9190611be7565b60405180910390f35b6001600360003373ffffffffffffffffffffffffffffffffffffffff1673ffffffffffffffffffffffffffffffffffffffff1681526020019081526020016000205414610349576040517f08c379a000000000000000000000000000000000000000000000000000000000815260040161034090611fdd565b60405180910390fd5b6002805490508210610390576040517f08c379a000000000000000000000000000000000000000000000000000000000815260040161038790612049565b60405180910390fd5b80600283815481106103a5576103a4612069565b5b906000526020600020906007020160050190816103c291906122a4565b505050565b6001600360003373ffffffffffffffffffffffffffffffffffffffff1673ffffffffffffffffffffffffffffffffffffffff1681526020019081526020016000205414610449576040517f08c379a000000000000000000000000000000000000000000000000000000000815260040161044090611fdd565b60405180910390fd5b6002805490508210610490576040517f08c379a000000000000000000000000000000000000000000000000000000000815260040161048790612049565b60405180910390fd5b80600283815481106104a5576104a4612069565b5b906000526020600020906007020160030160016101000a81548160ff021916908360028111156104d8576104d7611d62565b5b02179055505050565b6000806000905060005b600280549050811015610552576002818154811061050c5761050b612069565b5b906000526020600020906007020160060160009054906101000a900460ff161561053f57818061053b906123a5565b9250505b808061054a906123a5565b9150506104eb565b5060028054905081610564919061241c565b91505090565b6000831015801561057c575060028311155b6105bb576040517f08c379a00000000000000000000000000000000000000000000000000000000081526004016105b290612499565b60405180910390fd5b6000604051806101400160405280600180546105d791906124b9565b81526020013373ffffffffffffffffffffffffffffffffffffffff16815260200186815260200185600281111561061157610610611d62565b5b600281111561062357610622611d62565b5b81526020016000600281111561063c5761063b611d62565b5b81526020018481526020018381526020016000151581526020013373ffffffffffffffffffffffffffffffffffffffff16815260200160018081111561068557610684611d62565b5b815250905060028190806001815401808255809150506001900390600052602060002090600702016000909190919091506000820151816000015560208201518160010160006101000a81548173ffffffffffffffffffffffffffffffffffffffff021916908373ffffffffffffffffffffffffffffffffffffffff1602179055506040820151816002015560608201518160030160006101000a81548160ff0219169083600281111561073c5761073b611d62565b5b021790555060808201518160030160016101000a81548160ff0219169083600281111561076c5761076b611d62565b5b021790555060a082015181600401908161078691906122a4565b5060c082015181600501908161079c91906122a4565b5060e08201518160060160006101000a81548160ff0219169083151502179055506101008201518160060160016101000a81548173ffffffffffffffffffffffffffffffffffffffff021916908373ffffffffffffffffffffffffffffffffffffffff1602179055506101208201518160060160156101000a81548160ff0219169083600181111561083157610830611d62565b5b021790555050506001600081548092919061084b906123a5565b91905055506004836040516108609190612529565b9081526020016040518091039020600081548092919061087f906123a5565b91905055505050505050565b60606002808111156108a05761089f611d62565b5b600283815481106108b4576108b3612069565b5b906000526020600020906007020160030160019054906101000a900460ff1660028111156108e5576108e4611d62565b5b14610925576040517f08c379a000000000000000000000000000000000000000000000000000000000815260040161091c906125b2565b60405180910390fd5b60006040518060600160405280602881526020016127cc602891399050806109716002858154811061095a57610959612069565b5b906000526020600020906007020160000154611506565b6040516020016109829291906125d2565b6040516020818303038152906040529050806040516020016109a49190612668565b604051602081830303815290604052905080915050919050565b6001600360003373ffffffffffffffffffffffffffffffffffffffff1673ffffffffffffffffffffffffffffffffffffffff1681526020019081526020016000205414610a40576040517f08c379a0000000000000000000000000000000000000000000000000000000008152600401610a3790611fdd565b60405180910390fd5b6002805490508210610a87576040517f08c379a0000000000000000000000000000000000000000000000000000000008152600401610a7e90612049565b60405180910390fd5b8060028381548110610a9c57610a9b612069565b5b90600052602060002090600702016004019081610ab991906122a4565b505050565b6001600360003373ffffffffffffffffffffffffffffffffffffffff1673ffffffffffffffffffffffffffffffffffffffff1681526020019081526020016000205414610b40576040517f08c379a0000000000000000000000000000000000000000000000000000000008152600401610b3790611fdd565b60405180910390fd5b6002805490508210610b87576040517f08c379a0000000000000000000000000000000000000000000000000000000008152600401610b7e90612049565b60405180910390fd5b8060028381548110610b9c57610b9b612069565b5b906000526020600020906007020160060160006101000a81548160ff0219169083151502179055505050565b60008054906101000a900473ffffffffffffffffffffffffffffffffffffffff1681565b60008060008060008060008060005b600280549050811015610d5357600d60028281548110610c1e57610c1d612069565b5b9060005260206000209060070201600201541015610c49578480610c41906123a5565b955050610d40565b600d60028281548110610c5f57610c5e612069565b5b90600052602060002090600702016002015410158015610ca45750601460028281548110610c9057610c8f612069565b5b906000526020600020906007020160020154105b15610cbc578380610cb4906123a5565b945050610d3f565b601460028281548110610cd257610cd1612069565b5b90600052602060002090600702016002015410158015610d175750603260028281548110610d0357610d02612069565b5b906000526020600020906007020160020154105b15610d2f578280610d27906123a5565b935050610d3e565b8180610d3a906123a5565b9250505b5b5b8080610d4b906123a5565b915050610bfb565b5060006002805490509050600081606487610d6e919061268a565b610d78919061241c565b9050600082606487610d8a919061268a565b610d94919061241c565b9050600083606487610da6919061268a565b610db0919061241c565b9050600084606487610dc2919061268a565b610dcc919061241c565b9050838383839c509c509c509c5050505050505050505090919293565b6001600360003373ffffffffffffffffffffffffffffffffffffffff1673ffffffffffffffffffffffffffffffffffffffff1681526020019081526020016000205414610e6b576040517f08c379a0000000000000000000000000000000000000000000000000000000008152600401610e6290611fdd565b60405180910390fd5b6002805490508210610eb2576040517f08c379a0000000000000000000000000000000000000000000000000000000008152600401610ea990612049565b60405180910390fd5b8060028381548110610ec757610ec6612069565b5b9060005260206000209060070201600201819055505050565b6001600360003373ffffffffffffffffffffffffffffffffffffffff1673ffffffffffffffffffffffffffffffffffffffff1681526020019081526020016000205414610f62576040517f08c379a0000000000000000000000000000000000000000000000000000000008152600401610f5990611fdd565b60405180910390fd5b8060028381548110610f7757610f76612069565b5b906000526020600020906007020160060160006101000a81548160ff0219169083151502179055505050565b60028181548110610fb357600080fd5b90600052602060002090600702016000915090508060000154908060010160009054906101000a900473ffffffffffffffffffffffffffffffffffffffff16908060020154908060030160009054906101000a900460ff16908060030160019054906101000a900460ff169080600401805461102e906120c7565b80601f016020809104026020016040519081016040528092919081815260200182805461105a906120c7565b80156110a75780601f1061107c576101008083540402835291602001916110a7565b820191906000526020600020905b81548152906001019060200180831161108a57829003601f168201915b5050505050908060050180546110bc906120c7565b80601f01602080910402602001604051908101604052809291908181526020018280546110e8906120c7565b80156111355780601f1061110a57610100808354040283529160200191611135565b820191906000526020600020905b81548152906001019060200180831161111857829003601f168201915b5050505050908060060160009054906101000a900460ff16908060060160019054906101000a900473ffffffffffffffffffffffffffffffffffffffff16908060060160159054906101000a900460ff1690508a565b60008060028054905067ffffffffffffffff8111156111ad576111ac611886565b5b6040519080825280602002602001820160405280156111db5781602001602082028036833780820191505090505b5090506000805b6002805490508110156112cb57846040516020016112009190612529565b604051602081830303815290604052805190602001206002828154811061122a57611229612069565b5b906000526020600020906007020160040160405160200161124b919061274f565b60405160208183030381529060405280519060200120036112b8576002818154811061127a57611279612069565b5b906000526020600020906007020160020154838380611298906123a5565b9450815181106112ab576112aa612069565b5b6020026020010181815250505b80806112c3906123a5565b9150506111e2565b50600081036112df57600092505050611391565b6112e982826116e7565b60006002826112f8919061241c565b905060016002836113099190612766565b036113335782818151811061132157611320612069565b5b60200260200101519350505050611391565b600283828151811061134857611347612069565b5b60200260200101518460018461135e9190612797565b8151811061136f5761136e612069565b5b602002602001015161138191906124b9565b61138b919061241c565b93505050505b919050565b6060806000805b6002805490508110156114fd57816004600283815481106113c1576113c0612069565b5b90600052602060002090600702016004016040516113df919061274f565b90815260200160405180910390205411156114ea5760046002828154811061140a57611409612069565b5b9060005260206000209060070201600401604051611428919061274f565b90815260200160405180910390205491506002818154811061144d5761144c612069565b5b90600052602060002090600702016004018054611469906120c7565b80601f0160208091040260200160405190810160405280929190818152602001828054611495906120c7565b80156114e25780601f106114b7576101008083540402835291602001916114e2565b820191906000526020600020905b8154815290600101906020018083116114c557829003601f168201915b505050505092505b80806114f5906123a5565b91505061139d565b50819250505090565b606060006064905060008167ffffffffffffffff81111561152a57611529611886565b5b6040519080825280601f01601f19166020018201604052801561155c5781602001600182028036833780820191505090505b50905060005b600085146115ee576000600a866115799190612766565b9050600a86611588919061241c565b955080603061159791906124b9565b60f81b8383806115a6906123a5565b9450815181106115b9576115b8612069565b5b60200101907effffffffffffffffffffffffffffffffffffffffffffffffffffffffffffff1916908160001a90535050611562565b60008167ffffffffffffffff81111561160a57611609611886565b5b6040519080825280601f01601f19166020018201604052801561163c5781602001600182028036833780820191505090505b50905060005b828110156116d45783600182856116599190612797565b6116639190612797565b8151811061167457611673612069565b5b602001015160f81c60f81b82828151811061169257611691612069565b5b60200101907effffffffffffffffffffffffffffffffffffffffffffffffffffffffffffff1916908160001a90535080806116cc906123a5565b915050611642565b5060008190508095505050505050919050565b60005b6001826116f79190612797565b81101561181c5760005b6001828461170f9190612797565b6117199190612797565b811015611808578360018261172e91906124b9565b8151811061173f5761173e612069565b5b602002602001015184828151811061175a57611759612069565b5b602002602001015111156117f5578360018261177691906124b9565b8151811061178757611786612069565b5b60200260200101518482815181106117a2576117a1612069565b5b60200260200101518583815181106117bd576117bc612069565b5b60200260200101866001856117d291906124b9565b815181106117e3576117e2612069565b5b60200260200101828152508281525050505b8080611800906123a5565b915050611701565b508080611814906123a5565b9150506116ea565b505050565b6000604051905090565b600080fd5b600080fd5b6000819050919050565b61184881611835565b811461185357600080fd5b50565b6000813590506118658161183f565b92915050565b600080fd5b600080fd5b6000601f19601f8301169050919050565b7f4e487b7100000000000000000000000000000000000000000000000000000000600052604160045260246000fd5b6118be82611875565b810181811067ffffffffffffffff821117156118dd576118dc611886565b5b80604052505050565b60006118f0611821565b90506118fc82826118b5565b919050565b600067ffffffffffffffff82111561191c5761191b611886565b5b61192582611875565b9050602081019050919050565b82818337600083830152505050565b600061195461194f84611901565b6118e6565b9050828152602081018484840111156119705761196f611870565b5b61197b848285611932565b509392505050565b600082601f8301126119985761199761186b565b5b81356119a8848260208601611941565b91505092915050565b600080604083850312156119c8576119c761182b565b5b60006119d685828601611856565b925050602083013567ffffffffffffffff8111156119f7576119f6611830565b5b611a0385828601611983565b9150509250929050565b60038110611a1a57600080fd5b50565b600081359050611a2c81611a0d565b92915050565b60008060408385031215611a4957611a4861182b565b5b6000611a5785828601611856565b9250506020611a6885828601611a1d565b9150509250929050565b611a7b81611835565b82525050565b6000602082019050611a966000830184611a72565b92915050565b60008060008060808587031215611ab657611ab561182b565b5b6000611ac487828801611856565b9450506020611ad587828801611856565b935050604085013567ffffffffffffffff811115611af657611af5611830565b5b611b0287828801611983565b925050606085013567ffffffffffffffff811115611b2357611b22611830565b5b611b2f87828801611983565b91505092959194509250565b600060208284031215611b5157611b5061182b565b5b6000611b5f84828501611856565b91505092915050565b600081519050919050565b600082825260208201905092915050565b60005b83811015611ba2578082015181840152602081019050611b87565b60008484015250505050565b6000611bb982611b68565b611bc38185611b73565b9350611bd3818560208601611b84565b611bdc81611875565b840191505092915050565b60006020820190508181036000830152611c018184611bae565b905092915050565b60008115159050919050565b611c1e81611c09565b8114611c2957600080fd5b50565b600081359050611c3b81611c15565b92915050565b60008060408385031215611c5857611c5761182b565b5b6000611c6685828601611856565b9250506020611c7785828601611c2c565b9150509250929050565b600073ffffffffffffffffffffffffffffffffffffffff82169050919050565b6000611cac82611c81565b9050919050565b611cbc81611ca1565b82525050565b6000602082019050611cd76000830184611cb3565b92915050565b6000608082019050611cf26000830187611a72565b611cff6020830186611a72565b611d0c6040830185611a72565b611d196060830184611a72565b95945050505050565b60008060408385031215611d3957611d3861182b565b5b6000611d4785828601611856565b9250506020611d5885828601611856565b9150509250929050565b7f4e487b7100000000000000000000000000000000000000000000000000000000600052602160045260246000fd5b60038110611da257611da1611d62565b5b50565b6000819050611db382611d91565b919050565b6000611dc382611da5565b9050919050565b611dd381611db8565b82525050565b60038110611dea57611de9611d62565b5b50565b6000819050611dfb82611dd9565b919050565b6000611e0b82611ded565b9050919050565b611e1b81611e00565b82525050565b611e2a81611c09565b82525050565b60028110611e4157611e40611d62565b5b50565b6000819050611e5282611e30565b919050565b6000611e6282611e44565b9050919050565b611e7281611e57565b82525050565b600061014082019050611e8e600083018d611a72565b611e9b602083018c611cb3565b611ea8604083018b611a72565b611eb5606083018a611dca565b611ec26080830189611e12565b81810360a0830152611ed48188611bae565b905081810360c0830152611ee88187611bae565b9050611ef760e0830186611e21565b611f05610100830185611cb3565b611f13610120830184611e69565b9b9a5050505050505050505050565b600060208284031215611f3857611f3761182b565b5b600082013567ffffffffffffffff811115611f5657611f55611830565b5b611f6284828501611983565b91505092915050565b7f4f6e6c792061646d696e2063616e2061636365737320746869732066756e637460008201527f696f6e0000000000000000000000000000000000000000000000000000000000602082015250565b6000611fc7602383611b73565b9150611fd282611f6b565b604082019050919050565b60006020820190508181036000830152611ff681611fba565b9050919050565b7f50617469656e7420494420646f6573206e6f7420657869737400000000000000600082015250565b6000612033601983611b73565b915061203e82611ffd565b602082019050919050565b6000602082019050818103600083015261206281612026565b9050919050565b7f4e487b7100000000000000000000000000000000000000000000000000000000600052603260045260246000fd5b7f4e487b7100000000000000000000000000000000000000000000000000000000600052602260045260246000fd5b600060028204905060018216806120df57607f821691505b6020821081036120f2576120f1612098565b5b50919050565b60008190508160005260206000209050919050565b60006020601f8301049050919050565b600082821b905092915050565b60006008830261215a7fffffffffffffffffffffffffffffffffffffffffffffffffffffffffffffffff8261211d565b612164868361211d565b95508019841693508086168417925050509392505050565b6000819050919050565b60006121a161219c61219784611835565b61217c565b611835565b9050919050565b6000819050919050565b6121bb83612186565b6121cf6121c7826121a8565b84845461212a565b825550505050565b600090565b6121e46121d7565b6121ef8184846121b2565b505050565b5b81811015612213576122086000826121dc565b6001810190506121f5565b5050565b601f82111561225857612229816120f8565b6122328461210d565b81016020851015612241578190505b61225561224d8561210d565b8301826121f4565b50505b505050565b600082821c905092915050565b600061227b6000198460080261225d565b1980831691505092915050565b6000612294838361226a565b9150826002028217905092915050565b6122ad82611b68565b67ffffffffffffffff8111156122c6576122c5611886565b5b6122d082546120c7565b6122db828285612217565b600060209050601f83116001811461230e57600084156122fc578287015190505b6123068582612288565b86555061236e565b601f19841661231c866120f8565b60005b828110156123445784890151825560018201915060208501945060208101905061231f565b86831015612361578489015161235d601f89168261226a565b8355505b6001600288020188555050505b505050505050565b7f4e487b7100000000000000000000000000000000000000000000000000000000600052601160045260246000fd5b60006123b082611835565b91507fffffffffffffffffffffffffffffffffffffffffffffffffffffffffffffffff82036123e2576123e1612376565b5b600182019050919050565b7f4e487b7100000000000000000000000000000000000000000000000000000000600052601260045260246000fd5b600061242782611835565b915061243283611835565b925082612442576124416123ed565b5b828204905092915050565b7f496e76616c69642067656e646572000000000000000000000000000000000000600082015250565b6000612483600e83611b73565b915061248e8261244d565b602082019050919050565b600060208201905081810360008301526124b281612476565b9050919050565b60006124c482611835565b91506124cf83611835565b92508282019050808211156124e7576124e6612376565b5b92915050565b600081905092915050565b600061250382611b68565b61250d81856124ed565b935061251d818560208601611b84565b80840191505092915050565b600061253582846124f8565b915081905092915050565b7f50617469656e7420686173206e6f742072656365697665642074776f20646f7360008201527f6573207965740000000000000000000000000000000000000000000000000000602082015250565b600061259c602683611b73565b91506125a782612540565b604082019050919050565b600060208201905081810360008301526125cb8161258f565b9050919050565b60006125de82856124f8565b91506125ea82846124f8565b91508190509392505050565b7f20686173206265656e2066756c6c792076616363696e6174656420776974682060008201527f74776f20646f7365732e00000000000000000000000000000000000000000000602082015250565b6000612652602a836124ed565b915061265d826125f6565b602a82019050919050565b600061267482846124f8565b915061267f82612645565b915081905092915050565b600061269582611835565b91506126a083611835565b92508282026126ae81611835565b915082820484148315176126c5576126c4612376565b5b5092915050565b600081546126d9816120c7565b6126e381866124ed565b945060018216600081146126fe576001811461271357612746565b60ff1983168652811515820286019350612746565b61271c856120f8565b60005b8381101561273e5781548189015260018201915060208101905061271f565b838801955050505b50505092915050565b600061275b82846126cc565b915081905092915050565b600061277182611835565b915061277c83611835565b92508261278c5761278b6123ed565b5b828206905092915050565b60006127a282611835565b91506127ad83611835565b92508282039050818111156127c5576127c4612376565b5b9291505056fe5468697320697320746f206365727469667920746861742070617469656e74207769746820494420a2646970667358221220cc8ffa2aa33922e04d636cb01cb1ea2613f0a89b5bc480680bc31ab1181af24f64736f6c63430008110033",
  "immutableReferences": {},
  "source": "// SPDX-License-Identifier: MIT\r\npragma solidity 0.8.17;\r\n\r\ncontract Patient {\r\n    address public ownerAddress = msg.sender;\r\n\r\n    uint private initialPatientID = 0;\r\n\r\n    struct PatientInfo {\r\n        uint id;\r\n        address ethereumAddress;\r\n        uint age;\r\n        Gender gender;\r\n        VaccineStatus vaccine_status;\r\n        string district;\r\n        string symptoms_details;\r\n        bool is_dead;\r\n        address owner;\r\n        Role role;\r\n    }\r\n\r\n    PatientInfo[] public patientList;\r\n    mapping(address => uint) isAdmin;\r\n    mapping(string => uint) districtPatientsCount;\r\n\r\n    enum Gender {\r\n        Male,\r\n        Female,\r\n        Other\r\n    }\r\n\r\n    enum VaccineStatus {\r\n        not_vaccinated,\r\n        one_dose,\r\n        two_dose\r\n    }\r\n\r\n    enum Role {\r\n        admin,\r\n        patient\r\n    }\r\n\r\n    constructor() {\r\n        isAdmin[msg.sender] = 1;\r\n        patientList.push(\r\n            PatientInfo(\r\n                1,\r\n                msg.sender,\r\n                25,\r\n                Gender.Male,\r\n                VaccineStatus.not_vaccinated,\r\n                \"admin\",\r\n                \"admin\",\r\n                false,\r\n                msg.sender,\r\n                Role.admin\r\n            )\r\n        );\r\n    }\r\n\r\n    // Store patient data \r\n    function storePatientData(\r\n        uint256 _age,\r\n        uint256 _gender, \r\n        string memory _district,\r\n        string memory _symptoms_details\r\n    ) public {\r\n        require(_gender >= 0 && _gender <= 2, \"Invalid gender\");\r\n\r\n        PatientInfo memory temporaryPatient = PatientInfo(\r\n            initialPatientID + 1,\r\n            msg.sender,\r\n            _age,\r\n            Gender(_gender),\r\n            VaccineStatus.not_vaccinated,\r\n            _district,\r\n            _symptoms_details,\r\n            false,\r\n            msg.sender,\r\n            Role.patient\r\n        );\r\n\r\n        patientList.push(temporaryPatient);\r\n        initialPatientID++;\r\n\r\n        districtPatientsCount[_district]++;\r\n    }\r\n\r\n    modifier onlyAdminAccess() {\r\n        require(\r\n            isAdmin[msg.sender] == 1,\r\n            \"Only admin can access this function\"\r\n        );\r\n        _;\r\n    }\r\n\r\n    function updateVaccineStatus(\r\n        uint _id,\r\n        VaccineStatus _vaccineStatus\r\n    ) public onlyAdminAccess {\r\n        require(_id < patientList.length, \"Patient ID does not exist\");\r\n        patientList[_id].vaccine_status = _vaccineStatus;\r\n    }\r\n\r\n    function updateDeadStatus(\r\n        uint _patientID, \r\n        bool _deadStatus\r\n    ) public onlyAdminAccess {\r\n        require(_patientID < patientList.length, \"Patient ID does not exist\");\r\n        patientList[_patientID].is_dead = _deadStatus;\r\n    }\r\n    \r\n    function updatePatientSymptoms(\r\n        uint _patientID, \r\n        string memory _symptoms\r\n    ) public onlyAdminAccess {\r\n        require(_patientID < patientList.length, \"Patient ID does not exist\");\r\n        patientList[_patientID].symptoms_details = _symptoms;\r\n    }\r\n\r\n    function updatePatientDistrict(\r\n        uint _patientID, \r\n        string memory _district\r\n    ) public onlyAdminAccess {\r\n        require(_patientID < patientList.length, \"Patient ID does not exist\");\r\n        patientList[_patientID].district = _district;\r\n    }\r\n\r\n    function updatePatientAge(\r\n        uint _patientID, \r\n        uint _age\r\n    ) public onlyAdminAccess {\r\n        require(_patientID < patientList.length, \"Patient ID does not exist\");\r\n        patientList[_patientID].age = _age;\r\n    }\r\n\r\n    // Function to calculate average death rate per day combined all the districts\r\n    function calculateAverageDeathRate() public view returns (uint) {\r\n        uint totalDeadPatients = 0;\r\n        for (uint i = 0; i < patientList.length; i++) {\r\n            if (patientList[i].is_dead) {\r\n                totalDeadPatients++;\r\n            }\r\n        }\r\n        return totalDeadPatients / patientList.length;\r\n    }\r\n\r\n    // Function to find the district with the highest number of covid patients\r\n    function findDistrictWithHighestCovidPatient() public view returns (string memory) {\r\n        string memory districtWithHighestPatients;\r\n        uint highestPatientCount = 0;\r\n        \r\n        for (uint i = 0; i < patientList.length; i++) {\r\n            if (districtPatientsCount[patientList[i].district] > highestPatientCount) {\r\n                highestPatientCount = districtPatientsCount[patientList[i].district];\r\n                districtWithHighestPatients = patientList[i].district;\r\n            }\r\n        }\r\n        return districtWithHighestPatients;\r\n    }\r\n\r\n    // Function to calculate the median age of covid patients in each district\r\n    function calculateMedianAge(string memory _district) public view returns (uint) {\r\n        uint[] memory ages = new uint[](patientList.length);\r\n        uint count = 0;\r\n        for (uint i = 0; i < patientList.length; i++) {\r\n            if (keccak256(abi.encodePacked(patientList[i].district)) == keccak256(abi.encodePacked(_district))) {\r\n                ages[count++] = patientList[i].age;\r\n            }\r\n        }\r\n        if (count == 0) {\r\n            return 0; // No patients in the district\r\n        }\r\n        // Sort the ages array\r\n        sort(ages, count);\r\n        \r\n        uint middle = count / 2;\r\n        if (count % 2 == 1) {\r\n            return ages[middle];\r\n        } else {\r\n            return (ages[middle - 1] + ages[middle]) / 2;\r\n        }\r\n    }\r\n\r\n    // Function to sort an array in ascending order (using bubble sort)\r\n    function sort(uint[] memory data, uint length) private pure {\r\n        for (uint i = 0; i < length - 1; i++) {\r\n            for (uint j = 0; j < length - i - 1; j++) {\r\n                if (data[j] > data[j + 1]) {\r\n                    (data[j], data[j + 1]) = (data[j + 1], data[j]); // Swap elements\r\n                }\r\n            }\r\n        }\r\n    }\r\n\r\n    // Function to calculate the percentage of Children, Teenage, Young and Elder patients\r\n    function calculateAgeGroupPercentage() public view returns (uint, uint, uint, uint) {\r\n        uint childrenCount;\r\n        uint teenageCount;\r\n        uint youngCount;\r\n        uint elderCount;\r\n        \r\n        for (uint i = 0; i < patientList.length; i++) {\r\n            if (patientList[i].age < 13) {\r\n                childrenCount++;\r\n            } else if (patientList[i].age >= 13 && patientList[i].age < 20) {\r\n                teenageCount++;\r\n            } else if (patientList[i].age >= 20 && patientList[i].age < 50) {\r\n                youngCount++;\r\n            } else {\r\n                elderCount++;\r\n            }\r\n        }\r\n        \r\n        uint totalPatients = patientList.length;\r\n        \r\n        uint childrenPercentage = (childrenCount * 100) / totalPatients;\r\n        uint teenagePercentage = (teenageCount * 100) / totalPatients;\r\n        uint youngPercentage = (youngCount * 100) / totalPatients;\r\n        uint elderPercentage = (elderCount * 100) / totalPatients;\r\n        \r\n        return (childrenPercentage, teenagePercentage, youngPercentage, elderPercentage);\r\n    }\r\n\r\n    // Function to generate a vaccine certificate for patients who received two doses\r\n    function generateVaccineCertificate(uint _id) public view returns (string memory) {\r\n        require(patientList[_id].vaccine_status == VaccineStatus.two_dose, \"Patient has not received two doses yet\");\r\n        \r\n        string memory certificate = \"This is to certify that patient with ID \";\r\n        certificate = string(abi.encodePacked(certificate, uintToString(patientList[_id].id)));\r\n        certificate = string(abi.encodePacked(certificate, \" has been fully vaccinated with two doses.\"));\r\n        return certificate;\r\n    }\r\n\r\n    // Helper function to convert uint to string\r\n    function uintToString(uint v) internal pure returns (string memory) {\r\n        uint maxlength = 100;\r\n        bytes memory reversed = new bytes(maxlength);\r\n        uint i = 0;\r\n        while (v != 0) {\r\n            uint remainder = v % 10;\r\n            v = v / 10;\r\n            reversed[i++] = bytes1(uint8(48 + remainder));\r\n        }\r\n        bytes memory s = new bytes(i); // i + 1 is inefficient, just do i\r\n        for (uint j = 0; j < i; j++) {\r\n            s[j] = reversed[i - j - 1]; // to avoid the off-by-one error\r\n        }\r\n        string memory str = string(s); // memory isn't implicitly convertible to storage\r\n        return str;\r\n    }\r\n\r\n    // Function to update the death rate automatically\r\n    function updateDeathRateAutomatically(uint _id, bool _isDead) public onlyAdminAccess {\r\n        patientList[_id].is_dead = _isDead;\r\n    }\r\n}\r\n",
  "sourcePath": "F:\\CSE446 Project1\\contracts\\patient.sol",
  "compiler": {
    "name": "solc",
    "version": "0.8.17+commit.8df45f5f.Emscripten.clang"
  },
  "schemaVersion": "3.4.16",
  "updatedAt": "2024-04-14T17:27:49.611Z",
  "networkType": "ethereum",
  "devdoc": {
    "kind": "dev",
    "methods": {},
    "version": 1
  },
  "userdoc": {
    "kind": "user",
    "methods": {},
    "version": 1
  }
}